{
  "contractName": "TwitterContract",
  "abi": [
    {
      "anonymous": false,
      "inputs": [
        {
          "indexed": false,
          "internalType": "address",
          "name": "recipient",
          "type": "address"
        },
        {
          "indexed": false,
          "internalType": "uint256",
          "name": "tweetId",
          "type": "uint256"
        }
      ],
      "name": "AddTweet",
      "type": "event"
    },
    {
      "anonymous": false,
      "inputs": [
        {
          "indexed": false,
          "internalType": "uint256",
          "name": "tweetId",
          "type": "uint256"
        },
        {
          "indexed": false,
          "internalType": "bool",
          "name": "isDeleted",
          "type": "bool"
        }
      ],
      "name": "DeleteTweet",
      "type": "event"
    },
    {
      "anonymous": false,
      "inputs": [
        {
          "indexed": false,
          "internalType": "address",
          "name": "owner",
          "type": "address"
        }
      ],
      "name": "UserUpdated",
      "type": "event"
    },
    {
      "inputs": [
        {
          "internalType": "string",
          "name": "tweetText",
          "type": "string"
        },
        {
          "internalType": "string",
          "name": "tweetImage",
          "type": "string"
        }
      ],
      "name": "addTweet",
      "outputs": [],
      "stateMutability": "nonpayable",
      "type": "function"
    },
    {
      "inputs": [
        {
          "internalType": "string",
          "name": "name",
          "type": "string"
        },
        {
          "internalType": "string",
          "name": "bio",
          "type": "string"
        },
        {
          "internalType": "string",
          "name": "avatar",
          "type": "string"
        }
      ],
      "name": "updateUser",
      "outputs": [],
      "stateMutability": "nonpayable",
      "type": "function"
    },
    {
      "inputs": [
        {
          "internalType": "address",
          "name": "userAddress",
          "type": "address"
        }
      ],
      "name": "getUser",
      "outputs": [
        {
          "components": [
            {
              "internalType": "address",
              "name": "owner",
              "type": "address"
            },
            {
              "internalType": "string",
              "name": "name",
              "type": "string"
            },
            {
              "internalType": "string",
              "name": "bio",
              "type": "string"
            },
            {
              "internalType": "string",
              "name": "avatar",
              "type": "string"
            },
            {
              "internalType": "int256",
              "name": "active",
              "type": "int256"
            }
          ],
          "internalType": "struct TwitterContract.User",
          "name": "",
          "type": "tuple"
        }
      ],
      "stateMutability": "view",
      "type": "function",
      "constant": true
    },
    {
      "inputs": [],
      "name": "getAllTweets",
      "outputs": [
        {
          "components": [
            {
              "internalType": "uint256",
              "name": "id",
              "type": "uint256"
            },
            {
              "internalType": "address",
              "name": "author",
              "type": "address"
            },
            {
              "internalType": "uint256",
              "name": "date",
              "type": "uint256"
            },
            {
              "internalType": "string",
              "name": "tweetText",
              "type": "string"
            },
            {
              "internalType": "string",
              "name": "tweetImage",
              "type": "string"
            },
            {
              "internalType": "bool",
              "name": "isDeleted",
              "type": "bool"
            }
          ],
          "internalType": "struct TwitterContract.Tweet[]",
          "name": "",
          "type": "tuple[]"
        }
      ],
      "stateMutability": "view",
      "type": "function",
      "constant": true
    },
    {
      "inputs": [],
      "name": "getMyTweets",
      "outputs": [
        {
          "components": [
            {
              "internalType": "uint256",
              "name": "id",
              "type": "uint256"
            },
            {
              "internalType": "address",
              "name": "author",
              "type": "address"
            },
            {
              "internalType": "uint256",
              "name": "date",
              "type": "uint256"
            },
            {
              "internalType": "string",
              "name": "tweetText",
              "type": "string"
            },
            {
              "internalType": "string",
              "name": "tweetImage",
              "type": "string"
            },
            {
              "internalType": "bool",
              "name": "isDeleted",
              "type": "bool"
            }
          ],
          "internalType": "struct TwitterContract.Tweet[]",
          "name": "",
          "type": "tuple[]"
        }
      ],
      "stateMutability": "view",
      "type": "function",
      "constant": true
    },
    {
      "inputs": [
        {
          "internalType": "uint256",
          "name": "tweetId",
          "type": "uint256"
        },
        {
          "internalType": "bool",
          "name": "isDeleted",
          "type": "bool"
        }
      ],
      "name": "deleteTweet",
      "outputs": [],
      "stateMutability": "nonpayable",
      "type": "function"
    }
  ],
  "bytecode": "0x608060405234801561001057600080fd5b50611d23806100206000396000f3fe608060405234801561001057600080fd5b50600436106100625760003560e01c8063532561351461006757806360903be6146100855780636f77926b146100a15780637e75b408146100d1578063aefedbc2146100ed578063f0312a371461010b575b600080fd5b61006f610127565b60405161007c91906113e4565b60405180910390f35b61009f600480360381019061009a919061154f565b6104cd565b005b6100bb60048036038101906100b69190611622565b61075c565b6040516100c891906116ec565b60405180910390f35b6100eb60048036038101906100e6919061170e565b610a55565b005b6100f5610c08565b60405161010291906113e4565b60405180910390f35b610125600480360381019061012091906117de565b611019565b005b60606000808054905067ffffffffffffffff81111561014957610148611424565b5b60405190808252806020026020018201604052801561018257816020015b61016f6110fa565b8152602001906001900390816101675790505b509050600080603260008054905011156101ab5760326000805490506101a8919061184d565b90505b60008190505b6000805490508110156104125760001515600082815481106101d6576101d5611881565b5b906000526020600020906006020160050160009054906101000a900460ff161515036103ff57600081815481106102105761020f611881565b5b90600052602060002090600602016040518060c0016040529081600082015481526020016001820160009054906101000a900473ffffffffffffffffffffffffffffffffffffffff1673ffffffffffffffffffffffffffffffffffffffff1673ffffffffffffffffffffffffffffffffffffffff168152602001600282015481526020016003820180546102a3906118df565b80601f01602080910402602001604051908101604052809291908181526020018280546102cf906118df565b801561031c5780601f106102f15761010080835404028352916020019161031c565b820191906000526020600020905b8154815290600101906020018083116102ff57829003601f168201915b50505050508152602001600482018054610335906118df565b80601f0160208091040260200160405190810160405280929190818152602001828054610361906118df565b80156103ae5780601f10610383576101008083540402835291602001916103ae565b820191906000526020600020905b81548152906001019060200180831161039157829003601f168201915b505050505081526020016005820160009054906101000a900460ff1615151515815250508484815181106103e5576103e4611881565b5b602002602001018190525082806103fb90611910565b9350505b808061040a90611910565b9150506101b1565b5060008267ffffffffffffffff81111561042f5761042e611424565b5b60405190808252806020026020018201604052801561046857816020015b6104556110fa565b81526020019060019003908161044d5790505b50905060005b838110156104c25784818151811061048957610488611881565b5b60200260200101518282815181106104a4576104a3611881565b5b602002602001018190525080806104ba90611910565b91505061046e565b508094505050505090565b6001600260003373ffffffffffffffffffffffffffffffffffffffff1673ffffffffffffffffffffffffffffffffffffffff168152602001908152602001600020600401540361060c5782600260003373ffffffffffffffffffffffffffffffffffffffff1673ffffffffffffffffffffffffffffffffffffffff16815260200190815260200160002060010190816105669190611b04565b5081600260003373ffffffffffffffffffffffffffffffffffffffff1673ffffffffffffffffffffffffffffffffffffffff16815260200190815260200160002060020190816105b69190611b04565b5080600260003373ffffffffffffffffffffffffffffffffffffffff1673ffffffffffffffffffffffffffffffffffffffff16815260200190815260200160002060030190816106069190611b04565b50610720565b6040518060a001604052803373ffffffffffffffffffffffffffffffffffffffff1681526020018481526020018381526020018281526020016001815250600260003373ffffffffffffffffffffffffffffffffffffffff1673ffffffffffffffffffffffffffffffffffffffff16815260200190815260200160002060008201518160000160006101000a81548173ffffffffffffffffffffffffffffffffffffffff021916908373ffffffffffffffffffffffffffffffffffffffff16021790555060208201518160010190816106e59190611b04565b5060408201518160020190816106fb9190611b04565b5060608201518160030190816107119190611b04565b50608082015181600401559050505b7f0163b5f10e25c839f35e6f2b201b31e88e17f49e6956232de5d2e6bbae3b78b83360405161074f9190611be5565b60405180910390a1505050565b610764611148565b6001600260008473ffffffffffffffffffffffffffffffffffffffff1673ffffffffffffffffffffffffffffffffffffffff1681526020019081526020016000206004015403610a1557600260008373ffffffffffffffffffffffffffffffffffffffff1673ffffffffffffffffffffffffffffffffffffffff1681526020019081526020016000206040518060a00160405290816000820160009054906101000a900473ffffffffffffffffffffffffffffffffffffffff1673ffffffffffffffffffffffffffffffffffffffff1673ffffffffffffffffffffffffffffffffffffffff16815260200160018201805461085e906118df565b80601f016020809104026020016040519081016040528092919081815260200182805461088a906118df565b80156108d75780601f106108ac576101008083540402835291602001916108d7565b820191906000526020600020905b8154815290600101906020018083116108ba57829003601f168201915b505050505081526020016002820180546108f0906118df565b80601f016020809104026020016040519081016040528092919081815260200182805461091c906118df565b80156109695780601f1061093e57610100808354040283529160200191610969565b820191906000526020600020905b81548152906001019060200180831161094c57829003601f168201915b50505050508152602001600382018054610982906118df565b80601f01602080910402602001604051908101604052809291908181526020018280546109ae906118df565b80156109fb5780601f106109d0576101008083540402835291602001916109fb565b820191906000526020600020905b8154815290600101906020018083116109de57829003601f168201915b505050505081526020016004820154815250509050610a50565b6040517f08c379a0000000000000000000000000000000000000000000000000000000008152600401610a4790611c5d565b60405180910390fd5b919050565b60008080549050905060006040518060c001604052808381526020013373ffffffffffffffffffffffffffffffffffffffff1681526020014281526020018581526020018481526020016000151581525090806001815401808255809150506001900390600052602060002090600602016000909190919091506000820151816000015560208201518160010160006101000a81548173ffffffffffffffffffffffffffffffffffffffff021916908373ffffffffffffffffffffffffffffffffffffffff160217905550604082015181600201556060820151816003019081610b3f9190611b04565b506080820151816004019081610b559190611b04565b5060a08201518160050160006101000a81548160ff0219169083151502179055505050336001600083815260200190815260200160002060006101000a81548173ffffffffffffffffffffffffffffffffffffffff021916908373ffffffffffffffffffffffffffffffffffffffff1602179055507f8b2db9b424f26463510ef5b02c16f2465836b52081b51d2112ec76102053bdea3382604051610bfb929190611c8c565b60405180910390a1505050565b60606000808054905067ffffffffffffffff811115610c2a57610c29611424565b5b604051908082528060200260200182016040528015610c6357816020015b610c506110fa565b815260200190600190039081610c485790505b50905060008060326000805490501115610c8c576032600080549050610c89919061184d565b90505b60008190505b600080549050811015610f5e573373ffffffffffffffffffffffffffffffffffffffff166001600083815260200190815260200160002060009054906101000a900473ffffffffffffffffffffffffffffffffffffffff1673ffffffffffffffffffffffffffffffffffffffff16148015610d4357506000151560008281548110610d2057610d1f611881565b5b906000526020600020906006020160050160009054906101000a900460ff161515145b15610f4b5760008181548110610d5c57610d5b611881565b5b90600052602060002090600602016040518060c0016040529081600082015481526020016001820160009054906101000a900473ffffffffffffffffffffffffffffffffffffffff1673ffffffffffffffffffffffffffffffffffffffff1673ffffffffffffffffffffffffffffffffffffffff16815260200160028201548152602001600382018054610def906118df565b80601f0160208091040260200160405190810160405280929190818152602001828054610e1b906118df565b8015610e685780601f10610e3d57610100808354040283529160200191610e68565b820191906000526020600020905b815481529060010190602001808311610e4b57829003601f168201915b50505050508152602001600482018054610e81906118df565b80601f0160208091040260200160405190810160405280929190818152602001828054610ead906118df565b8015610efa5780601f10610ecf57610100808354040283529160200191610efa565b820191906000526020600020905b815481529060010190602001808311610edd57829003601f168201915b505050505081526020016005820160009054906101000a900460ff161515151581525050848481518110610f3157610f30611881565b5b60200260200101819052508280610f4790611910565b9350505b8080610f5690611910565b915050610c92565b5060008267ffffffffffffffff811115610f7b57610f7a611424565b5b604051908082528060200260200182016040528015610fb457816020015b610fa16110fa565b815260200190600190039081610f995790505b50905060005b8381101561100e57848181518110610fd557610fd4611881565b5b6020026020010151828281518110610ff057610fef611881565b5b6020026020010181905250808061100690611910565b915050610fba565b508094505050505090565b3373ffffffffffffffffffffffffffffffffffffffff166001600084815260200190815260200160002060009054906101000a900473ffffffffffffffffffffffffffffffffffffffff1673ffffffffffffffffffffffffffffffffffffffff16036110f657806000838154811061109457611093611881565b5b906000526020600020906006020160050160006101000a81548160ff0219169083151502179055507f2430f837dd2fb40e08c064be9db3d0cf2a7a21f8fe716a2a41787dafc66a7e2a82826040516110ed929190611cc4565b60405180910390a15b5050565b6040518060c0016040528060008152602001600073ffffffffffffffffffffffffffffffffffffffff1681526020016000815260200160608152602001606081526020016000151581525090565b6040518060a00160405280600073ffffffffffffffffffffffffffffffffffffffff168152602001606081526020016060815260200160608152602001600081525090565b600081519050919050565b600082825260208201905092915050565b6000819050602082019050919050565b6000819050919050565b6111cc816111b9565b82525050565b600073ffffffffffffffffffffffffffffffffffffffff82169050919050565b60006111fd826111d2565b9050919050565b61120d816111f2565b82525050565b600081519050919050565b600082825260208201905092915050565b60005b8381101561124d578082015181840152602081019050611232565b60008484015250505050565b6000601f19601f8301169050919050565b600061127582611213565b61127f818561121e565b935061128f81856020860161122f565b61129881611259565b840191505092915050565b60008115159050919050565b6112b8816112a3565b82525050565b600060c0830160008301516112d660008601826111c3565b5060208301516112e96020860182611204565b5060408301516112fc60408601826111c3565b5060608301518482036060860152611314828261126a565b9150506080830151848203608086015261132e828261126a565b91505060a083015161134360a08601826112af565b508091505092915050565b600061135a83836112be565b905092915050565b6000602082019050919050565b600061137a8261118d565b6113848185611198565b935083602082028501611396856111a9565b8060005b858110156113d257848403895281516113b3858261134e565b94506113be83611362565b925060208a0199505060018101905061139a565b50829750879550505050505092915050565b600060208201905081810360008301526113fe818461136f565b905092915050565b6000604051905090565b600080fd5b600080fd5b600080fd5b600080fd5b7f4e487b7100000000000000000000000000000000000000000000000000000000600052604160045260246000fd5b61145c82611259565b810181811067ffffffffffffffff8211171561147b5761147a611424565b5b80604052505050565b600061148e611406565b905061149a8282611453565b919050565b600067ffffffffffffffff8211156114ba576114b9611424565b5b6114c382611259565b9050602081019050919050565b82818337600083830152505050565b60006114f26114ed8461149f565b611484565b90508281526020810184848401111561150e5761150d61141f565b5b6115198482856114d0565b509392505050565b600082601f8301126115365761153561141a565b5b81356115468482602086016114df565b91505092915050565b60008060006060848603121561156857611567611410565b5b600084013567ffffffffffffffff81111561158657611585611415565b5b61159286828701611521565b935050602084013567ffffffffffffffff8111156115b3576115b2611415565b5b6115bf86828701611521565b925050604084013567ffffffffffffffff8111156115e0576115df611415565b5b6115ec86828701611521565b9150509250925092565b6115ff816111f2565b811461160a57600080fd5b50565b60008135905061161c816115f6565b92915050565b60006020828403121561163857611637611410565b5b60006116468482850161160d565b91505092915050565b6000819050919050565b6116628161164f565b82525050565b600060a0830160008301516116806000860182611204565b5060208301518482036020860152611698828261126a565b915050604083015184820360408601526116b2828261126a565b915050606083015184820360608601526116cc828261126a565b91505060808301516116e16080860182611659565b508091505092915050565b600060208201905081810360008301526117068184611668565b905092915050565b6000806040838503121561172557611724611410565b5b600083013567ffffffffffffffff81111561174357611742611415565b5b61174f85828601611521565b925050602083013567ffffffffffffffff8111156117705761176f611415565b5b61177c85828601611521565b9150509250929050565b61178f816111b9565b811461179a57600080fd5b50565b6000813590506117ac81611786565b92915050565b6117bb816112a3565b81146117c657600080fd5b50565b6000813590506117d8816117b2565b92915050565b600080604083850312156117f5576117f4611410565b5b60006118038582860161179d565b9250506020611814858286016117c9565b9150509250929050565b7f4e487b7100000000000000000000000000000000000000000000000000000000600052601160045260246000fd5b6000611858826111b9565b9150611863836111b9565b925082820390508181111561187b5761187a61181e565b5b92915050565b7f4e487b7100000000000000000000000000000000000000000000000000000000600052603260045260246000fd5b7f4e487b7100000000000000000000000000000000000000000000000000000000600052602260045260246000fd5b600060028204905060018216806118f757607f821691505b60208210810361190a576119096118b0565b5b50919050565b600061191b826111b9565b91507fffffffffffffffffffffffffffffffffffffffffffffffffffffffffffffffff820361194d5761194c61181e565b5b600182019050919050565b60008190508160005260206000209050919050565b60006020601f8301049050919050565b600082821b905092915050565b6000600883026119ba7fffffffffffffffffffffffffffffffffffffffffffffffffffffffffffffffff8261197d565b6119c4868361197d565b95508019841693508086168417925050509392505050565b6000819050919050565b6000611a016119fc6119f7846111b9565b6119dc565b6111b9565b9050919050565b6000819050919050565b611a1b836119e6565b611a2f611a2782611a08565b84845461198a565b825550505050565b600090565b611a44611a37565b611a4f818484611a12565b505050565b5b81811015611a7357611a68600082611a3c565b600181019050611a55565b5050565b601f821115611ab857611a8981611958565b611a928461196d565b81016020851015611aa1578190505b611ab5611aad8561196d565b830182611a54565b50505b505050565b600082821c905092915050565b6000611adb60001984600802611abd565b1980831691505092915050565b6000611af48383611aca565b9150826002028217905092915050565b611b0d82611213565b67ffffffffffffffff811115611b2657611b25611424565b5b611b3082546118df565b611b3b828285611a77565b600060209050601f831160018114611b6e5760008415611b5c578287015190505b611b668582611ae8565b865550611bce565b601f198416611b7c86611958565b60005b82811015611ba457848901518255600182019150602085019450602081019050611b7f565b86831015611bc15784890151611bbd601f891682611aca565b8355505b6001600288020188555050505b505050505050565b611bdf816111f2565b82525050565b6000602082019050611bfa6000830184611bd6565b92915050565b600082825260208201905092915050565b7f4e6f7420666f756e640000000000000000000000000000000000000000000000600082015250565b6000611c47600983611c00565b9150611c5282611c11565b602082019050919050565b60006020820190508181036000830152611c7681611c3a565b9050919050565b611c86816111b9565b82525050565b6000604082019050611ca16000830185611bd6565b611cae6020830184611c7d565b9392505050565b611cbe816112a3565b82525050565b6000604082019050611cd96000830185611c7d565b611ce66020830184611cb5565b939250505056fea2646970667358221220d40a9e0e17c26c9dc938c1643d1b05bb8757c9dd821a8916213b66856d127d4e64736f6c63430008120033",
  "immutableReferences": {},
  "source": "// SPDX-License-Identifier: GPL-3.0\n\npragma solidity >=0.4.22 <0.9.0;\n\n/**\n * @title Twitter Contract\n * @dev Store & retrieve value in a variable\n */\ncontract TwitterContract {\n\n    event AddTweet(address recipient, uint tweetId);\n    event DeleteTweet(uint tweetId, bool isDeleted);\n    event UserUpdated(address owner);\n\n    struct Tweet {\n        uint id;\n        address author;\n        uint256 date;\n        string tweetText;\n        string tweetImage;\n        bool isDeleted;\n    }\n\n    struct User {\n        address owner;\n        string name;\n        string bio;\n        string avatar;\n        int active;\n    }\n\n    Tweet[] private tweets;\n\n    // Mapping of Tweet id to the wallet address of the user\n    mapping(uint256 => address) tweetToOwner;\n    mapping(address => User) users;\n\n    // Method to be called by our frontend when trying to add a new Tweet\n    function addTweet(string memory tweetText, string memory tweetImage) external {\n        uint tweetId = tweets.length;\n        tweets.push(Tweet(tweetId, msg.sender, block.timestamp, tweetText, tweetImage, false));\n        tweetToOwner[tweetId] = msg.sender;\n        emit AddTweet(msg.sender, tweetId);\n    }\n\n    function updateUser(string memory name, string memory bio, string memory avatar) external {\n        if(users[msg.sender].active == 1) {\n            users[msg.sender].name = name;\n            users[msg.sender].bio = bio;\n            users[msg.sender].avatar = avatar;\n        }\n        else {\n            users[msg.sender] = User(msg.sender, name, bio, avatar, 1);\n        }\n        emit UserUpdated(msg.sender);\n    }\n\n    function getUser(address userAddress) external view returns (User memory) {\n        if(users[userAddress].active == 1){\n            return users[userAddress];\n        }\n        else {\n            revert('Not found');\n        }\n    }\n\n    // Method to get all the Tweets\n    function getAllTweets() external view returns (Tweet[] memory) {\n        Tweet[] memory temporary = new Tweet[](tweets.length);\n        uint counter = 0;\n        uint firstIndex = 0;\n        if(tweets.length > 50) {\n            firstIndex = tweets.length - 50;\n        }\n        for(uint i=firstIndex; i<tweets.length; i++) {\n            if(tweets[i].isDeleted == false) {\n                temporary[counter] = tweets[i];\n                counter++;\n            }\n        }\n\n        Tweet[] memory result = new Tweet[](counter);\n        for(uint i=0; i<counter; i++) {\n            result[i] = temporary[i];\n        }\n        return result;\n    }\n\n    // Method to get only your Tweets\n    function getMyTweets() external view returns (Tweet[] memory) {\n        Tweet[] memory temporary = new Tweet[](tweets.length);\n        uint counter = 0;\n        uint firstIndex = 0;\n        if(tweets.length > 50) {\n            firstIndex = tweets.length - 50;\n        }\n        for(uint i=firstIndex; i<tweets.length; i++) {\n            if(tweetToOwner[i] == msg.sender && tweets[i].isDeleted == false) {\n                temporary[counter] = tweets[i];\n                counter++;\n            }\n        }\n\n        Tweet[] memory result = new Tweet[](counter);\n        for(uint i=0; i<counter; i++) {\n            result[i] = temporary[i];\n        }\n        return result;\n    }\n\n    // Method to Delete a Tweet\n    function deleteTweet(uint tweetId, bool isDeleted) external {\n        if(tweetToOwner[tweetId] == msg.sender) {\n            tweets[tweetId].isDeleted = isDeleted;\n            emit DeleteTweet(tweetId, isDeleted);\n        }\n    }\n\n}\n",
  "sourcePath": "/Users/antonioparraga/Documents/Git/Experiments/twitter-web3-smartcontract/contracts/TwitterContract.sol",
  "compiler": {
    "name": "solc",
    "version": "0.8.18+commit.87f61d96.Emscripten.clang"
  },
  "schemaVersion": "3.4.12",
  "updatedAt": "2023-03-09T10:45:29.851Z",
  "networkType": "ethereum",
  "devdoc": {
    "details": "Store & retrieve value in a variable",
    "kind": "dev",
    "methods": {},
    "title": "Twitter Contract",
    "version": 1
  },
  "userdoc": {
    "kind": "user",
    "methods": {},
    "version": 1
  }
}